:020000040000FA
:0600000030EF09F01200D0
:0600080034EF08F01200C5
:06102A0001007E1200002F
:081030006B000000010000004C
:081038007F6A7E6AC2907F6AA4
:101040007E6A948C938C9388949E9E969D869F86B0
:10105000800EE66EE66A040EE66EECEC08F0E552F1
:10106000E552E552C68A1200DACFE4FFE6520001EB
:10107000010E6B6FC9CF6AF0C7B0FED79E96F28E95
:10108000E552E5CFDAFF1100D9CFE6FFE1CFD9FF76
:101090001A0EE126600ED36E7E6A7F6A936A946AA6
:1010A000B10EB16E8A6A8B6AC7DFF28EF28C0001D4
:1010B0006B51FDE06B6B00016A51380A38E00F0A92
:1010C00030E0010A28E0030A20E0010A18E0070ADC
:1010D00010E0010A08E0030AEAE182A002D08B9046
:1010E000E6D78B80E4D782A202D08B92E0D78B82A6
:1010F000DED782A402D08B94DAD78B84D8D782A68D
:1011000002D08B96D4D78B86D2D782A802D08B9868
:10111000CED78B88CCD782AA02D08B9AC8D78B8A9D
:10112000C6D781AA02D08A9AC2D78A8AC0D781AE8E
:0A11300002D08A9EBCD78A8EBAD77F
:06113A002A0EF66E100EF5
:10114000F76E000EF86E00010900F550656F09009A
:10115000F550666F03E1656701D03DD00900F55099
:10116000606F0900F550616F0900F550626F09006A
:101170000900F550E96E0900F550EA6E0900090012
:101180000900F550636F0900F550646F090009000C
:10119000F6CF67F0F7CF68F0F8CF69F060C0F6FFE0
:1011A00061C0F7FF62C0F8FF0001635302E16453BE
:1011B00007E00900F550EE6E6307F8E26407F9D71F
:1011C00067C0F6FF68C0F7FF69C0F8FF0001650758
:0811D000000E665BBFD71200A0
:0811D800D9CFE6FFDACFE6FFF4
:1011E000E1CFD9FFE2CFDAFF3F0EC716C66AFD0E88
:1011F000DB50C612FB0EDB50C712FC0EDB50030A9D
:1012000009E0010A04E0020A06E1C78C04D0C78C99
:10121000C68801D0C688FD0EDB50050A05E0010A2C
:1012200005E1938C948C03D0938C01D0939C949E75
:101230009388C68AE552E5CFDAFFE7CFD9FF1200DF
:10124000000EF36E00EE00F0030E01D81200EA600B
:1012500002D0EE6AFCD7F350E9601200EE6AFCD7C8
:1012600011EE00F021EE00F0F86A019C9DEC08F010
:0C1270003EEC09F044EC08F0FBD7120043
:02127C0012005E
:01127E00006F
:020000040030CA
:0100000000FF
:0100010038C6
:0100020021DC
:010003001EDE
:0100050000FA
:010006008178
:0100080003F4
:01000900C036
:01000A0003F2
:01000B00E014
:01000C0003F0
:01000D0040B2
:00000001FF
