:020000040000FA
:06000000F4EF09F012000C
:06000800FCEF08F01200FD
:06102A00010006140000A5
:08103000BE00000007000000F3
:081038007F6A7E6AC2907F6AA4
:101040007E6A948C938C9388949E9E969D869F86B0
:10105000800EE66EE66A040EE66EB0EC09F0E5522C
:10106000E552E552C68A1200D9CFE6FFE1CFD9FF9B
:101070000001280EC25D000EC359600EC025E96E46
:10108000000EC121EA6EFE0EDBCFEFFFC02B000E7B
:10109000C123280EC05D000EC15902E3C06BC16BB5
:1010A000C22B000EC323E552E7CFD9FF1200D9CFE0
:1010B000E6FFE1CFD9FFE6520001C251C31103E1BF
:1010C000F368F4681AD0C207000EC35B600EBE2539
:1010D000E96E000EBF21EA6EEFCFDFFFBE2B000EE0
:1010E000BF23280EBE5D000EBF5902E3BE6BBF6B6F
:1010F000DF50036AF36E03C0F4FFE552E552E7CF19
:10110000D9FF1200D9CFE6FFE1CFD9FFE6520001A7
:10111000C251C3116CE0CBDFF350DF6EDF50450AE4
:101120000DE0030AF4E1C3DF310EF31807E1F450D8
:1011300005E182A002D08B9001D08B80B8DF380E01
:10114000F31801E1F4504DE0370EF31801E1F450CB
:1011500042E0360EF31801E1F45037E0350EF31893
:1011600001E1F4502CE0340EF31801E1F45021E0D9
:10117000330EF31801E1F45016E0320EF31801E1DA
:10118000F4500BE0310EF318C2E1F450C0E182A03C
:1011900002D08B90BCD78B80BAD782A202D08B9220
:1011A000B6D78B82B4D782A402D08B94B0D78B846D
:1011B000AED782A602D08B96AAD78B86A8D782A854
:1011C00002D08B98A4D78B88A2D782AA02D08B9A00
:1011D0009ED78B8A9CD781AA02D08A9A98D78A8A6E
:1011E00096D781AE02D08A9E92D78A8E90D7E5524A
:1011F000E552E7CFD9FF1200DACFE4FFE2CFDAFF02
:10120000E9CFE4FFEACFE4FFF6CFE4FFF7CFE4FF56
:10121000F5CFE4FFF3CFE4FFF4CFE4FFFACFE4FF30
:1012200000EE00F0020EE80403E3EECFE4FFFBD78C
:1012300000EE02F0020EE80403E3EECFE4FFFBD77A
:10124000E652C950E66E10DFE5529E96F28EE552E8
:1012500000EE03F0020EE80403E3E5CFEDFFFBD759
:1012600000EE01F0020EE80403E3E5CFEDFFFBD74B
:10127000E5CFFAFFE5CFF4FFE5CFF3FFE5CFF5FFCC
:10128000E5CFF7FFE5CFF6FFE5CFEAFFE5CFE9FFD2
:10129000E5CFDAFF1100600ED36E7E6A7F6A936A33
:1012A000946AB10EB16E8A6A8B6AC6DEF28EF28CD7
:1012B0000001010ED880C255000EC355F9E222DFAD
:0212C000F7D75E
:0E12C2002A0EF66E100EF76E000EF86E00018A
:1012D0000900F550B96F0900F550BA6F03E1B9671D
:1012E00001D03DD00900F550B46F0900F550B56F3D
:1012F0000900F550B66F09000900F550E96E0900C4
:10130000F550EA6E090009000900F550B76F0900B1
:10131000F550B86F09000900F6CFBBF0F7CFBCF06D
:10132000F8CFBDF0B4C0F6FFB5C0F7FFB6C0F8FF08
:101330000001B75302E1B85307E00900F550EE6E23
:10134000B707F8E2B807F9D7BBC0F6FFBCC0F7FF94
:10135000BDC0F8FF0001B907000EBA5BBFD712008D
:10136000D9CFE6FFDACFE6FFE1CFD9FFE2CFDAFF50
:101370003F0EC716C66AFD0EDB50C612FB0EDB50D1
:10138000C712FC0EDB50030A09E0010A04E0020A5E
:1013900006E1C78C04D0C78CC68801D0C688FD0E74
:1013A000DB50050A05E0010A05E1938C948C03D01B
:1013B000938C01D0939C949E9388C68AE552E5CF86
:0813C000DAFFE7CFD9FF1200AC
:0813C800000EF36E00EE00F0D0
:1013D000030E01D81200EA6002D0EE6AFCD7F35087
:0813E000E9601200EE6AFCD77F
:0813E80011EE00F021EE00F00F
:1013F000F86A019C61EC09F002EC0AF04BEC09F090
:04140000FBD7120004
:021404001200D4
:0714060000000000000000DF
:020000040030CA
:0100000000FF
:0100010038C6
:0100020021DC
:010003001EDE
:0100050000FA
:010006008178
:0100080003F4
:01000900C036
:01000A0003F2
:01000B00E014
:01000C0003F0
:01000D0040B2
:00000001FF
