:020000040000FA
:0600000027EF09F01200D9
:02102A000000C4
:04102C007F6A7E6AEF
:10103000C2907F6A7E6A948C938C9388949E800E73
:10104000E66EE66A040EE66EE3EC08F0E552E55261
:10105000E552C68A1200D9CFE6FFE1CFD9FF1A0EBA
:10106000E126600ED36E7E6A7F6A936A946AB10E3F
:10107000B16E8A6A8B6ADADFC7A0FED7040EDB6A1C
:10108000D950050F026EDACF03F0040EDBCFF3FF69
:10109000DB2AF3500F010224E96E000EDA20EA6E1B
:1010A000C9CFEFFF050EDB50380A38E00F0A30E0F9
:1010B000010A28E0030A20E0010A18E0070A10E00C
:1010C000010A08E0030AD8E182A002D08B90D4D7AD
:1010D0008B80D2D782A202D08B92CED78B82CCD7F4
:1010E00082A402D08B94C8D78B84C6D782A602D0A4
:1010F0008B96C2D78B86C0D782A802D08B98BCD7DC
:101100008B88BAD782AA02D08B9AB6D78B8AB4D7EB
:1011100081AA02D08A9AB0D78A8AAED781AE02D08D
:081120008A9EAAD78A8EA8D787
:081128002A0EF66E100EF76EA0
:10113000000EF86E00010900F550656F0900F550CA
:10114000666F03E1656701D03DD00900F550606F1F
:101150000900F550616F0900F550626F0900090040
:10116000F550E96E0900F550EA6E09000900090022
:10117000F550636F0900F550646F09000900F6CF60
:1011800067F0F7CF68F0F8CF69F060C0F6FF61C094
:10119000F7FF62C0F8FF0001635302E1645307E008
:1011A0000900F550EE6E6307F8E26407F9D767C0EF
:1011B000F6FF68C0F7FF69C0F8FF00016507000E81
:0611C000665BBFD71200C0
:0A11C600D9CFE6FFDACFE6FFE1CF54
:1011D000D9FFE2CFDAFF3F0EC716C66AFD0EDB501D
:1011E000C612FB0EDB50C712FC0EDB50030A09E0EF
:1011F000010A04E0020A06E1C78C04D0C78CC68845
:1012000001D0C688FD0EDB50050A05E0010A05E1A4
:10121000938C948C03D0938C01D0939C949E938850
:0E122000C68AE552E5CFDAFFE7CFD9FF12000C
:02122E00000EB0
:10123000F36E00EE00F0030E01D81200EA6002D057
:0E124000EE6AFCD7F350E9601200EE6AFCD7AC
:02124E0011EE9F
:1012500000F021EE00F0F86A019C94EC08F035EC07
:0A12600009F02BEC08F0FBD7120098
:02126A00120070
:020000040030CA
:0100000000FF
:0100010038C6
:0100020021DC
:010003001EDE
:0100050000FA
:010006008178
:0100080003F4
:01000900C036
:01000A0003F2
:01000B00E014
:01000C0003F0
:01000D0040B2
:00000001FF
