:020000040000FA
:060000004FEF0AF01200B0
:0600080057EF09F01200A1
:06102A000100BC140000EF
:08103000BE00000007000000F3
:081038007F6A7E6AC2907F6AA4
:101040007E6A948C938C9388949E9E969D869F86B0
:10105000800EE66EE66A040EE66E0BEC0AF0E552D0
:10106000E552E552C68A1200D9CFE6FFE1CFD9FF9B
:101070000001280EC25D000EC359600EC025E96E46
:10108000000EC121EA6EFE0EDBCFEFFFC02B000E7B
:10109000C123280EC05D000EC15902E3C06BC16BB5
:1010A000C22B000EC323E552E7CFD9FF1200D9CFE0
:1010B000E6FFE1CFD9FFE6520001C207000EC35B95
:1010C000600EBE25E96E000EBF21EA6EEFCFDFFF96
:1010D000BE2B000EBF23280EBE5D000EBF5902E3DB
:1010E000BE6BBF6BDF50036AF36E03C0F4FFE552C3
:1010F000E552E7CFD9FF1200D9CFE6FFE1CFD9FF04
:10110000030EE1260001C251C31101E1C6D0CFDFB9
:10111000F350DF6EDF50450A65E0030AF3E1C7DFF5
:10112000010EF3CFDBFFC3DF010EDB50010BE76ED7
:10113000020EE7CFDBFFDB5002E08B8001D08B900B
:10114000010EDB50020BE76E020EE7CFDBFFDB5038
:1011500002E08B8201D08B92010EDB50040BE76E14
:10116000020EE7CFDBFFDB5002E08B8401D08B94D3
:10117000010EDB50080BE76E020EE7CFDBFFDB5002
:1011800002E08B8601D08B96010EDB50100BE76ED0
:10119000020EE7CFDBFFDB5002E08B8801D08B989B
:1011A000010EDB50200BE76E020EE7CFDBFFDB50BA
:1011B00002E08B8A01D08B9A010EDB50400BE76E68
:1011C000020EE7CFDBFFDB5002E08A8A01D08A9A69
:1011D000010EDB50800BE76E020EE7CFDBFFDB502A
:1011E0005AE157D064DF380EF31801E1F4504FE0B4
:1011F000370EF31801E1F45044E0360EF31801E124
:10120000F45039E0350EF31801E1F4502EE0340EBD
:10121000F31801E1F45023E0330EF31801E1F45028
:1012200018E0320EF31801E1F4500DE0310EF3181E
:1012300001E068D7F45001E065D782A002D08B901E
:1012400061D78B805FD782A202D08B925BD78B82D3
:1012500059D782A402D08B9455D78B8453D782A6BA
:1012600002D08B964FD78B864DD782A802D08B9811
:1012700049D78B8847D782AA02D08B9A43D78B8ACB
:1012800041D781AA02D08A9A3DD78A8A3BD781AEBC
:1012900002D08A9E37D78A8E35D7030EE15C02E2F0
:1012A000E16AE552E16EE552E7CFD9FF1200DACFED
:1012B000E4FFE2CFDAFFE9CFE4FFEACFE4FFF6CFC5
:1012C000E4FFF7CFE4FFF5CFE4FFF3CFE4FFF4CF83
:1012D000E4FFFACFE4FF00EE00F0020EE80403E3BF
:1012E000EECFE4FFFBD700EE02F0020EE80403E3CA
:1012F000EECFE4FFFBD7E652C950E66EB5DEE5520D
:101300009E96F28EE55200EE03F0020EE80403E32F
:10131000E5CFEDFFFBD700EE01F0020EE80403E39A
:10132000E5CFEDFFFBD7E5CFFAFFE5CFF4FFE5CF43
:10133000F3FFE5CFF5FFE5CFF7FFE5CFF6FFE5CF0C
:10134000EAFFE5CFE9FFE5CFDAFF1100600ED36ECB
:101350007E6A7F6A936A946AB10EB16E8A6A8B6AFA
:101360006BDEF28EF28C0001020ED880C255000EA8
:08137000C355F9E2C1DEF7D715
:081378002A0EF66E100EF76E4E
:10138000000EF86E00010900F550B96F0900F55024
:10139000BA6F03E1B96701D03DD00900F550B46FD1
:1013A0000900F550B56F0900F550B66F0900090046
:1013B000F550E96E0900F550EA6E090009000900D0
:1013C000F550B76F0900F550B86F09000900F6CF66
:1013D000BBF0F7CFBCF0F8CFBDF0B4C0F6FFB5C09E
:1013E000F7FFB6C0F8FF0001B75302E1B85307E0BA
:1013F0000900F550EE6EB707F8E2B807F9D7BBC0A1
:10140000F6FFBCC0F7FFBDC0F8FF0001B907000E32
:06141000BA5BBFD7120019
:0A141600D9CFE6FFDACFE6FFE1CF01
:10142000D9FFE2CFDAFF3F0EC716C66AFD0EDB50CA
:10143000C612FB0EDB50C712FC0EDB50030A09E09C
:10144000010A04E0020A06E1C78C04D0C78CC688F2
:1014500001D0C688FD0EDB50050A05E0010A05E152
:10146000938C948C03D0938C01D0939C949E9388FE
:0E147000C68AE552E5CFDAFFE7CFD9FF1200BA
:02147E00000E5E
:10148000F36E00EE00F0030E01D81200EA6002D005
:0E149000EE6AFCD7F350E9601200EE6AFCD75A
:02149E0011EE4D
:1014A00000F021EE00F0F86A019CBCEC09F05DEC64
:0A14B0000AF0A6EC09F0FBD71200C9
:0214BA0012001E
:0414BC00000000002C
:0314C00000000029
:020000040030CA
:0100000000FF
:0100010038C6
:0100020021DC
:010003001EDE
:0100050000FA
:010006008178
:0100080003F4
:01000900C036
:01000A0003F2
:01000B00E014
:01000C0003F0
:01000D0040B2
:00000001FF
