:020000040000FA
:06000000CBEF09F0120035
:06000800D6EF08F0120023
:06102A000100B4130000F8
:08103000BE00000007000000F3
:081038007F6A7E6AC2907F6AA4
:101040007E6A948C938C9388949E9E969D869F86B0
:10105000800EE66EE66A040EE66E87EC09F0E55255
:10106000E552E552C68A1200D9CFE6FFE1CFD9FF9B
:101070000001280EC25D000EC359600EC025E96E46
:10108000000EC121EA6EFE0EDBCFEFFFC02B000E7B
:10109000C123280EC05D000EC15902E3C06BC16BB5
:1010A000C22B000EC323E552E7CFD9FF1200D9CFE0
:1010B000E6FFE1CFD9FFE6520001C251C31103E1BF
:1010C000F368F4681AD0C207000EC35B600EBE2539
:1010D000E96E000EBF21EA6EEFCFDFFFBE2B000EE0
:1010E000BF23280EBE5D000EBF5902E3BE6BBF6B6F
:1010F000DF50036AF36E03C0F4FFE552E552E7CF19
:10110000D9FF1200D9CFE6FFE1CFD9FFE6520001A7
:10111000C251C31146E0CBDFF350DF6EDF50F7E082
:10112000DF50380A38E00F0A30E0010A28E0030AED
:1011300020E0010A18E0070A10E0010A08E0030AAB
:10114000E6E182A002D08B90E2D78B80E0D782A22A
:1011500002D08B92DCD78B82DAD782A402D08B9418
:10116000D6D78B84D4D782A602D08B96D0D78B8645
:10117000CED782A802D08B98CAD78B88C8D782AA2C
:1011800002D08B9AC4D78B8AC2D781AA02D08A9AFE
:10119000BED78A8ABCD781AE02D08A9EB8D78A8E43
:1011A000B6D7E552E552E7CFD9FF1200DACFE4FF18
:1011B000E2CFDAFFE9CFE4FFEACFE4FFF6CFE4FFC6
:1011C000F7CFE4FFF5CFE4FFF3CFE4FFF4CFE4FF84
:1011D000FACFE4FF00EE00F0020EE80403E3EECFE6
:1011E000E4FFFBD700EE02F0020EE80403E3EECFCB
:1011F000E4FFFBD7E652C950E66E36DFE5529E9615
:10120000F28EE55200EE03F0020EE80403E3E5CFB0
:10121000EDFFFBD700EE01F0020EE80403E3E5CF9B
:10122000EDFFFBD7E5CFFAFFE5CFF4FFE5CFF3FF06
:10123000E5CFF5FFE5CFF7FFE5CFF6FFE5CFEAFF16
:10124000E5CFE9FFE5CFDAFF1100600ED36E7E6ACD
:101250007F6A936A946AB10EB16E8A6A8B6AECDE19
:10126000F28EF28C0001C251C311FCE04BDFFAD7C1
:101270002A0EF66E100EF76E000EF86E00010900D1
:10128000F550B96F0900F550BA6F03E1B96701D0A5
:101290003DD00900F550B46F0900F550B56F090055
:1012A000F550B66F09000900F550E96E0900F550D8
:1012B000EA6E090009000900F550B76F0900F55002
:1012C000B86F09000900F6CFBBF0F7CFBCF0F8CF3C
:1012D000BDF0B4C0F6FFB5C0F7FFB6C0F8FF00011F
:1012E000B75302E1B85307E00900F550EE6EB707B7
:1012F000F8E2B807F9D7BBC0F6FFBCC0F7FFBDC026
:0E130000F8FF0001B907000EBA5BBFD712005C
:02130E00D9CF35
:10131000E6FFDACFE6FFE1CFD9FFE2CFDAFF3F0EFB
:10132000C716C66AFD0EDB50C612FB0EDB50C71295
:10133000FC0EDB50030A09E0010A04E0020A06E1A0
:10134000C78C04D0C78CC68801D0C688FD0EDB5080
:10135000050A05E0010A05E1938C948C03D0938C77
:1013600001D0939C949E9388C68AE552E5CFDAFF1C
:06137000E7CFD9FF1200D7
:0A137600000EF36E00EE00F0030E0F
:1013800001D81200EA6002D0EE6AFCD7F350E9609F
:061390001200EE6AFCD71A
:0A13960011EE00F021EE00F0F86AFD
:1013A000019C38EC09F0D9EC09F025EC09F0FBD7E9
:0213B000120029
:0213B200120027
:0713B4000000000000000032
:020000040030CA
:0100000000FF
:0100010038C6
:0100020021DC
:010003001EDE
:0100050000FA
:010006008178
:0100080003F4
:01000900C036
:01000A0003F2
:01000B00E014
:01000C0003F0
:01000D0040B2
:00000001FF
