:020000040000FA
:060000005CEF09F01200A4
:061000005CEF09F0120094
:0610080016EF08F01200D3
:061018001DEF08F01200BC
:02102A000000C4
:04102C00DACFE4FF34
:10103000E652E552E5CFDAFF1100D8CFE4FFE0CF6A
:10104000E4FFE46EDACFE4FFE652E552E5CFDAFFE3
:10105000E550E5CFE0FFE5CFD8FF10007F6A7E6A5C
:10106000C2907F6A7E6A948C938C9388949E800E43
:10107000E66EE66A040EE66E18EC09F0E552E552FB
:10108000E552C68A1200D9CFE6FFE1CFD9FF060E9E
:10109000E126600ED36E7E6A7F6A936A946AB10E0F
:1010A000B16E8A6A8B6ADADFC7A0FED7040EC9CF99
:1010B000DBFFDB50380A38E00F0A30E0010A28E095
:1010C000030A20E0010A18E0070A10E0010A08E01C
:1010D000030AEAE182A002D08B90E6D78B80E4D7A6
:1010E00082A202D08B92E0D78B82DED782A402D07C
:1010F0008B94DAD78B84D8D782A602D08B96D4D79C
:101100008B86D2D782A802D08B98CED78B88CCD7AB
:1011100082AA02D08B9AC8D78B8AC6D781AA02D05E
:101120008A9AC2D78A8AC0D781AE02D08A9EBCD79B
:101130008A8EBAD7FA0EB36E240EB26EA192A1A215
:10114000FED71200D9CFE6FFE1CFD9FF020EE1268C
:10115000DE6ADD6ADECF00F0DDCF01F0FD0EDBCF11
:1011600002F0FE0EDBCF03F00250005C035001588A
:1011700006E2E0DFDF2A010EEDE3DB2AEBD7020E09
:10118000E15C02E2E16AE552E16EE552E7CFD9FFA8
:0211900012004B
:0E1192002A0EF66E100EF76E000EF86E0001BB
:1011A0000900F550656F0900F550666F03E165674A
:1011B00001D03DD00900F550606F0900F550616F16
:1011C0000900F550626F09000900F550E96E090049
:1011D000F550EA6E090009000900F550636F090037
:1011E000F550646F09000900F6CF67F0F7CF68F09B
:1011F000F8CF69F060C0F6FF61C0F7FF62C0F8FF8A
:101200000001635302E1645307E00900F550EE6EFC
:101210006307F8E26407F9D767C0F6FF68C0F7FF15
:1012200069C0F8FF00016507000E665BBFD71200BA
:10123000D9CFE6FFDACFE6FFE1CFD9FFE2CFDAFF81
:101240003F0EC716C66AFD0EDB50C612FB0EDB5002
:10125000C712FC0EDB50030A09E0010A04E0020A8F
:1012600006E1C78C04D0C78CC68801D0C688FD0EA5
:10127000DB50050A05E0010A05E1938C948C03D04C
:10128000938C01D0939C949E9388C68AE552E5CFB7
:08129000DAFFE7CFD9FF1200DD
:08129800000EF36E00EE00F001
:1012A000030E01D81200EA6002D0EE6AFCD7F350B8
:0812B000E9601200EE6AFCD7B0
:0812B80011EE00F021EE00F040
:1012C000F86A059CC9EC08F06AEC09F043EC08F0F8
:0412D000FBD7120036
:0212D400120006
:020000040030CA
:0100000000FF
:0100010038C6
:0100020021DC
:010003001EDE
:0100050000FA
:010006008178
:0100080003F4
:01000900C036
:01000A0003F2
:01000B00E014
:01000C0003F0
:01000D0040B2
:00000001FF
